{
  "_format": "hh3-artifact-1",
  "contractName": "Vault",
  "sourceName": "contracts/Vault/Vault.sol",
  "abi": [
    {
      "inputs": [
        {
          "internalType": "address",
          "name": "_stSTT",
          "type": "address"
        },
        {
          "internalType": "address",
          "name": "_oracle",
          "type": "address"
        }
      ],
      "stateMutability": "nonpayable",
      "type": "constructor"
    },
    {
      "inputs": [
        {
          "internalType": "address",
          "name": "owner",
          "type": "address"
        }
      ],
      "name": "OwnableInvalidOwner",
      "type": "error"
    },
    {
      "inputs": [
        {
          "internalType": "address",
          "name": "account",
          "type": "address"
        }
      ],
      "name": "OwnableUnauthorizedAccount",
      "type": "error"
    },
    {
      "anonymous": false,
      "inputs": [
        {
          "indexed": false,
          "internalType": "uint256",
          "name": "oldRate",
          "type": "uint256"
        },
        {
          "indexed": false,
          "internalType": "uint256",
          "name": "newRate",
          "type": "uint256"
        }
      ],
      "name": "ExchangeRateUpdated",
      "type": "event"
    },
    {
      "anonymous": false,
      "inputs": [
        {
          "indexed": true,
          "internalType": "address",
          "name": "oldOracle",
          "type": "address"
        },
        {
          "indexed": true,
          "internalType": "address",
          "name": "newOracle",
          "type": "address"
        }
      ],
      "name": "OracleUpdated",
      "type": "event"
    },
    {
      "anonymous": false,
      "inputs": [
        {
          "indexed": true,
          "internalType": "address",
          "name": "previousOwner",
          "type": "address"
        },
        {
          "indexed": true,
          "internalType": "address",
          "name": "newOwner",
          "type": "address"
        }
      ],
      "name": "OwnershipTransferred",
      "type": "event"
    },
    {
      "stateMutability": "payable",
      "type": "fallback"
    },
    {
      "inputs": [],
      "name": "RATE_PRECISION",
      "outputs": [
        {
          "internalType": "uint256",
          "name": "",
          "type": "uint256"
        }
      ],
      "stateMutability": "view",
      "type": "function"
    },
    {
      "inputs": [],
      "name": "deposit",
      "outputs": [],
      "stateMutability": "payable",
      "type": "function"
    },
    {
      "inputs": [],
      "name": "exchangeRate",
      "outputs": [
        {
          "internalType": "uint256",
          "name": "",
          "type": "uint256"
        }
      ],
      "stateMutability": "view",
      "type": "function"
    },
    {
      "inputs": [],
      "name": "oracle",
      "outputs": [
        {
          "internalType": "address",
          "name": "",
          "type": "address"
        }
      ],
      "stateMutability": "view",
      "type": "function"
    },
    {
      "inputs": [],
      "name": "owner",
      "outputs": [
        {
          "internalType": "address",
          "name": "",
          "type": "address"
        }
      ],
      "stateMutability": "view",
      "type": "function"
    },
    {
      "inputs": [],
      "name": "renounceOwnership",
      "outputs": [],
      "stateMutability": "nonpayable",
      "type": "function"
    },
    {
      "inputs": [
        {
          "internalType": "uint256",
          "name": "_newExchangeRate",
          "type": "uint256"
        }
      ],
      "name": "setExchangeRate",
      "outputs": [],
      "stateMutability": "nonpayable",
      "type": "function"
    },
    {
      "inputs": [
        {
          "internalType": "address",
          "name": "_newOracle",
          "type": "address"
        }
      ],
      "name": "setOracle",
      "outputs": [],
      "stateMutability": "nonpayable",
      "type": "function"
    },
    {
      "inputs": [],
      "name": "stToken",
      "outputs": [
        {
          "internalType": "contract stSTT",
          "name": "",
          "type": "address"
        }
      ],
      "stateMutability": "view",
      "type": "function"
    },
    {
      "inputs": [
        {
          "internalType": "address",
          "name": "newOwner",
          "type": "address"
        }
      ],
      "name": "transferOwnership",
      "outputs": [],
      "stateMutability": "nonpayable",
      "type": "function"
    },
    {
      "inputs": [
        {
          "internalType": "uint256",
          "name": "_amount",
          "type": "uint256"
        }
      ],
      "name": "withdraw",
      "outputs": [],
      "stateMutability": "payable",
      "type": "function"
    },
    {
      "stateMutability": "payable",
      "type": "receive"
    }
  ],
  "bytecode": "0x608060405234801561000f575f5ffd5b5060405161082b38038061082b83398101604081905261002e91610104565b338061005357604051631e4fbdf760e01b81525f600482015260240160405180910390fd5b61005c8161009a565b50600180546001600160a01b039384166001600160a01b031991821617909155670de0b6b3a764000060025560038054929093169116179055610135565b5f80546001600160a01b038381166001600160a01b0319831681178455604051919092169283917f8be0079c531659141344cd1fd0a4f28419497f9722a3daafe3b4186f6b6457e09190a35050565b80516001600160a01b03811681146100ff575f5ffd5b919050565b5f5f60408385031215610115575f5ffd5b61011e836100e9565b915061012c602084016100e9565b90509250929050565b6106e9806101425f395ff3fe608060405260043610610098575f3560e01c80637adbf973116100605780637adbf9731461013b5780637dc0d1d01461015a5780638da5cb5b14610179578063d0e30db014610195578063db068e0e1461019d578063f2fde38b146101bc57005b806323b6443e1461009a5780632b3ba681146100d65780632e1a7d4d146100ff5780633ba0b9a914610112578063715018a614610127575b005b3480156100a5575f5ffd5b506001546100b9906001600160a01b031681565b6040516001600160a01b0390911681526020015b60405180910390f35b3480156100e1575f5ffd5b506100f1670de0b6b3a764000081565b6040519081526020016100cd565b61009861010d366004610627565b6101db565b34801561011d575f5ffd5b506100f160025481565b348015610132575f5ffd5b50610098610392565b348015610146575f5ffd5b5061009861015536600461063e565b6103a5565b348015610165575f5ffd5b506003546100b9906001600160a01b031681565b348015610184575f5ffd5b505f546001600160a01b03166100b9565b610098610408565b3480156101a8575f5ffd5b506100986101b7366004610627565b6104c9565b3480156101c7575f5ffd5b506100986101d636600461063e565b61056f565b5f811161022f5760405162461bcd60e51b815260206004820152601a60248201527f737453545420616d6f756e742068617320746f206265203e203000000000000060448201526064015b60405180910390fd5b600154604051632770a7eb60e21b8152336004820152602481018390526001600160a01b0390911690639dc29fac906044015f604051808303815f87803b158015610278575f5ffd5b505af115801561028a573d5f5f3e3d5ffd5b505050505f670de0b6b3a7640000600254836102a6919061066b565b6102b09190610694565b9050804710156103025760405162461bcd60e51b815260206004820152601760248201527f4e6f7420656e6f7567682053545420696e207661756c740000000000000000006044820152606401610226565b6040515f90339083908381818185875af1925050503d805f8114610341576040519150601f19603f3d011682016040523d82523d5f602084013e610346565b606091505b505090508061038d5760405162461bcd60e51b815260206004820152601360248201527214d515081d1c985b9cd9995c8819985a5b1959606a1b6044820152606401610226565b505050565b61039a6105ac565b6103a35f6105d8565b565b6103ad6105ac565b6003546040516001600160a01b038084169216907f078c3b417dadf69374a59793b829c52001247130433427049317bde56607b1b7905f90a3600380546001600160a01b0319166001600160a01b0392909216919091179055565b5f34116104455760405162461bcd60e51b815260206004820152600b60248201526a139bc814d515081cd95b9d60aa1b6044820152606401610226565b6002545f9061045c670de0b6b3a76400003461066b565b6104669190610694565b6001546040516340c10f1960e01b8152336004820152602481018390529192506001600160a01b0316906340c10f19906044015f604051808303815f87803b1580156104b0575f5ffd5b505af11580156104c2573d5f5f3e3d5ffd5b5050505050565b6003546001600160a01b0316331461052e5760405162461bcd60e51b815260206004820152602260248201527f4f6e6c79204f7261636c652063616e2063616c6c20746869732066756e63746960448201526137b760f11b6064820152608401610226565b60025460408051918252602082018390527fc8d1043f24843c0a1c9251fdc30017d84e87498fbcf232af9f86816b5e182bde910160405180910390a1600255565b6105776105ac565b6001600160a01b0381166105a057604051631e4fbdf760e01b81525f6004820152602401610226565b6105a9816105d8565b50565b5f546001600160a01b031633146103a35760405163118cdaa760e01b8152336004820152602401610226565b5f80546001600160a01b038381166001600160a01b0319831681178455604051919092169283917f8be0079c531659141344cd1fd0a4f28419497f9722a3daafe3b4186f6b6457e09190a35050565b5f60208284031215610637575f5ffd5b5035919050565b5f6020828403121561064e575f5ffd5b81356001600160a01b0381168114610664575f5ffd5b9392505050565b808202811582820484141761068e57634e487b7160e01b5f52601160045260245ffd5b92915050565b5f826106ae57634e487b7160e01b5f52601260045260245ffd5b50049056fea2646970667358221220c476bb8a19bf8ffa130f852cb18fe3a87f706266346c1e21ea3f9b790ae69c7364736f6c634300081c0033",
  "linkReferences": {},
  "deployedLinkReferences": {},
  "immutableReferences": {},
  "inputSourceName": "project/contracts/Vault/Vault.sol",
  "buildInfoId": "solc-0_8_28-7d018b9b1426ec9ee2f70e3e00a61555f40d02b6"
}