{
  "_format": "hh3-artifact-1",
  "contractName": "stSTT",
  "sourceName": "contracts/Vault/stSTT.sol",
  "abi": [
    {
      "inputs": [],
      "stateMutability": "nonpayable",
      "type": "constructor"
    },
    {
      "inputs": [
        {
          "internalType": "address",
          "name": "spender",
          "type": "address"
        },
        {
          "internalType": "uint256",
          "name": "allowance",
          "type": "uint256"
        },
        {
          "internalType": "uint256",
          "name": "needed",
          "type": "uint256"
        }
      ],
      "name": "ERC20InsufficientAllowance",
      "type": "error"
    },
    {
      "inputs": [
        {
          "internalType": "address",
          "name": "sender",
          "type": "address"
        },
        {
          "internalType": "uint256",
          "name": "balance",
          "type": "uint256"
        },
        {
          "internalType": "uint256",
          "name": "needed",
          "type": "uint256"
        }
      ],
      "name": "ERC20InsufficientBalance",
      "type": "error"
    },
    {
      "inputs": [
        {
          "internalType": "address",
          "name": "approver",
          "type": "address"
        }
      ],
      "name": "ERC20InvalidApprover",
      "type": "error"
    },
    {
      "inputs": [
        {
          "internalType": "address",
          "name": "receiver",
          "type": "address"
        }
      ],
      "name": "ERC20InvalidReceiver",
      "type": "error"
    },
    {
      "inputs": [
        {
          "internalType": "address",
          "name": "sender",
          "type": "address"
        }
      ],
      "name": "ERC20InvalidSender",
      "type": "error"
    },
    {
      "inputs": [
        {
          "internalType": "address",
          "name": "spender",
          "type": "address"
        }
      ],
      "name": "ERC20InvalidSpender",
      "type": "error"
    },
    {
      "inputs": [
        {
          "internalType": "address",
          "name": "owner",
          "type": "address"
        }
      ],
      "name": "OwnableInvalidOwner",
      "type": "error"
    },
    {
      "inputs": [
        {
          "internalType": "address",
          "name": "account",
          "type": "address"
        }
      ],
      "name": "OwnableUnauthorizedAccount",
      "type": "error"
    },
    {
      "anonymous": false,
      "inputs": [
        {
          "indexed": true,
          "internalType": "address",
          "name": "owner",
          "type": "address"
        },
        {
          "indexed": true,
          "internalType": "address",
          "name": "spender",
          "type": "address"
        },
        {
          "indexed": false,
          "internalType": "uint256",
          "name": "value",
          "type": "uint256"
        }
      ],
      "name": "Approval",
      "type": "event"
    },
    {
      "anonymous": false,
      "inputs": [
        {
          "indexed": true,
          "internalType": "address",
          "name": "from",
          "type": "address"
        },
        {
          "indexed": false,
          "internalType": "uint256",
          "name": "amount",
          "type": "uint256"
        }
      ],
      "name": "Burned",
      "type": "event"
    },
    {
      "anonymous": false,
      "inputs": [
        {
          "indexed": true,
          "internalType": "address",
          "name": "to",
          "type": "address"
        },
        {
          "indexed": false,
          "internalType": "uint256",
          "name": "amount",
          "type": "uint256"
        }
      ],
      "name": "Minted",
      "type": "event"
    },
    {
      "anonymous": false,
      "inputs": [
        {
          "indexed": true,
          "internalType": "address",
          "name": "previousOwner",
          "type": "address"
        },
        {
          "indexed": true,
          "internalType": "address",
          "name": "newOwner",
          "type": "address"
        }
      ],
      "name": "OwnershipTransferred",
      "type": "event"
    },
    {
      "anonymous": false,
      "inputs": [
        {
          "indexed": true,
          "internalType": "address",
          "name": "from",
          "type": "address"
        },
        {
          "indexed": true,
          "internalType": "address",
          "name": "to",
          "type": "address"
        },
        {
          "indexed": false,
          "internalType": "uint256",
          "name": "value",
          "type": "uint256"
        }
      ],
      "name": "Transfer",
      "type": "event"
    },
    {
      "anonymous": false,
      "inputs": [
        {
          "indexed": true,
          "internalType": "address",
          "name": "oldVault",
          "type": "address"
        },
        {
          "indexed": true,
          "internalType": "address",
          "name": "newVault",
          "type": "address"
        }
      ],
      "name": "VaultSet",
      "type": "event"
    },
    {
      "inputs": [
        {
          "internalType": "address",
          "name": "owner",
          "type": "address"
        },
        {
          "internalType": "address",
          "name": "spender",
          "type": "address"
        }
      ],
      "name": "allowance",
      "outputs": [
        {
          "internalType": "uint256",
          "name": "",
          "type": "uint256"
        }
      ],
      "stateMutability": "view",
      "type": "function"
    },
    {
      "inputs": [
        {
          "internalType": "address",
          "name": "spender",
          "type": "address"
        },
        {
          "internalType": "uint256",
          "name": "value",
          "type": "uint256"
        }
      ],
      "name": "approve",
      "outputs": [
        {
          "internalType": "bool",
          "name": "",
          "type": "bool"
        }
      ],
      "stateMutability": "nonpayable",
      "type": "function"
    },
    {
      "inputs": [
        {
          "internalType": "address",
          "name": "account",
          "type": "address"
        }
      ],
      "name": "balanceOf",
      "outputs": [
        {
          "internalType": "uint256",
          "name": "",
          "type": "uint256"
        }
      ],
      "stateMutability": "view",
      "type": "function"
    },
    {
      "inputs": [
        {
          "internalType": "address",
          "name": "from",
          "type": "address"
        },
        {
          "internalType": "uint256",
          "name": "amount",
          "type": "uint256"
        }
      ],
      "name": "burn",
      "outputs": [],
      "stateMutability": "nonpayable",
      "type": "function"
    },
    {
      "inputs": [],
      "name": "decimals",
      "outputs": [
        {
          "internalType": "uint8",
          "name": "",
          "type": "uint8"
        }
      ],
      "stateMutability": "view",
      "type": "function"
    },
    {
      "inputs": [
        {
          "internalType": "address",
          "name": "to",
          "type": "address"
        },
        {
          "internalType": "uint256",
          "name": "amount",
          "type": "uint256"
        }
      ],
      "name": "mint",
      "outputs": [],
      "stateMutability": "nonpayable",
      "type": "function"
    },
    {
      "inputs": [],
      "name": "name",
      "outputs": [
        {
          "internalType": "string",
          "name": "",
          "type": "string"
        }
      ],
      "stateMutability": "view",
      "type": "function"
    },
    {
      "inputs": [],
      "name": "owner",
      "outputs": [
        {
          "internalType": "address",
          "name": "",
          "type": "address"
        }
      ],
      "stateMutability": "view",
      "type": "function"
    },
    {
      "inputs": [],
      "name": "renounceOwnership",
      "outputs": [],
      "stateMutability": "nonpayable",
      "type": "function"
    },
    {
      "inputs": [
        {
          "internalType": "address",
          "name": "_vault",
          "type": "address"
        }
      ],
      "name": "setVault",
      "outputs": [],
      "stateMutability": "nonpayable",
      "type": "function"
    },
    {
      "inputs": [],
      "name": "symbol",
      "outputs": [
        {
          "internalType": "string",
          "name": "",
          "type": "string"
        }
      ],
      "stateMutability": "view",
      "type": "function"
    },
    {
      "inputs": [],
      "name": "totalSupply",
      "outputs": [
        {
          "internalType": "uint256",
          "name": "",
          "type": "uint256"
        }
      ],
      "stateMutability": "view",
      "type": "function"
    },
    {
      "inputs": [
        {
          "internalType": "address",
          "name": "to",
          "type": "address"
        },
        {
          "internalType": "uint256",
          "name": "value",
          "type": "uint256"
        }
      ],
      "name": "transfer",
      "outputs": [
        {
          "internalType": "bool",
          "name": "",
          "type": "bool"
        }
      ],
      "stateMutability": "nonpayable",
      "type": "function"
    },
    {
      "inputs": [
        {
          "internalType": "address",
          "name": "from",
          "type": "address"
        },
        {
          "internalType": "address",
          "name": "to",
          "type": "address"
        },
        {
          "internalType": "uint256",
          "name": "value",
          "type": "uint256"
        }
      ],
      "name": "transferFrom",
      "outputs": [
        {
          "internalType": "bool",
          "name": "",
          "type": "bool"
        }
      ],
      "stateMutability": "nonpayable",
      "type": "function"
    },
    {
      "inputs": [
        {
          "internalType": "address",
          "name": "newOwner",
          "type": "address"
        }
      ],
      "name": "transferOwnership",
      "outputs": [],
      "stateMutability": "nonpayable",
      "type": "function"
    },
    {
      "inputs": [],
      "name": "vault",
      "outputs": [
        {
          "internalType": "address",
          "name": "",
          "type": "address"
        }
      ],
      "stateMutability": "view",
      "type": "function"
    }
  ],
  "bytecode": "0x608060405234801561000f575f5ffd5b50336040518060400160405280600a81526020016914dd185ad9590814d51560b21b815250604051806040016040528060058152602001641cdd14d51560da1b81525081600390816100619190610196565b50600461006e8282610196565b5050506001600160a01b03811661009e57604051631e4fbdf760e01b81525f600482015260240160405180910390fd5b6100a7816100ad565b50610250565b600580546001600160a01b038381166001600160a01b0319831681179093556040519116919082907f8be0079c531659141344cd1fd0a4f28419497f9722a3daafe3b4186f6b6457e0905f90a35050565b634e487b7160e01b5f52604160045260245ffd5b600181811c9082168061012657607f821691505b60208210810361014457634e487b7160e01b5f52602260045260245ffd5b50919050565b601f82111561019157805f5260205f20601f840160051c8101602085101561016f5750805b601f840160051c820191505b8181101561018e575f815560010161017b565b50505b505050565b81516001600160401b038111156101af576101af6100fe565b6101c3816101bd8454610112565b8461014a565b6020601f8211600181146101f5575f83156101de5750848201515b5f19600385901b1c1916600184901b17845561018e565b5f84815260208120601f198516915b828110156102245787850151825560209485019460019092019101610204565b508482101561024157868401515f19600387901b60f8161c191681555b50505050600190811b01905550565b610ae28061025d5f395ff3fe608060405234801561000f575f5ffd5b50600436106100fb575f3560e01c8063715018a611610093578063a9059cbb11610063578063a9059cbb1461020c578063dd62ed3e1461021f578063f2fde38b14610257578063fbfa77cf1461026a575f5ffd5b8063715018a6146101c45780638da5cb5b146101cc57806395d89b41146101f15780639dc29fac146101f9575f5ffd5b8063313ce567116100ce578063313ce5671461016557806340c10f19146101745780636817031b1461018957806370a082311461019c575f5ffd5b806306fdde03146100ff578063095ea7b31461011d57806318160ddd1461014057806323b872dd14610152575b5f5ffd5b61010761027d565b6040516101149190610952565b60405180910390f35b61013061012b3660046109a2565b61030d565b6040519015158152602001610114565b6002545b604051908152602001610114565b6101306101603660046109ca565b610326565b60405160128152602001610114565b6101876101823660046109a2565b610349565b005b610187610197366004610a04565b6103e5565b6101446101aa366004610a04565b6001600160a01b03165f9081526020819052604090205490565b61018761048e565b6005546001600160a01b03165b6040516001600160a01b039091168152602001610114565b6101076104a1565b6101876102073660046109a2565b6104b0565b61013061021a3660046109a2565b61053b565b61014461022d366004610a24565b6001600160a01b039182165f90815260016020908152604080832093909416825291909152205490565b610187610265366004610a04565b610548565b6006546101d9906001600160a01b031681565b60606003805461028c90610a55565b80601f01602080910402602001604051908101604052809291908181526020018280546102b890610a55565b80156103035780601f106102da57610100808354040283529160200191610303565b820191905f5260205f20905b8154815290600101906020018083116102e657829003601f168201915b5050505050905090565b5f3361031a818585610585565b60019150505b92915050565b5f33610333858285610597565b61033e858585610613565b506001949350505050565b6006546001600160a01b031633146103945760405162461bcd60e51b8152602060048201526009602482015268139bdd081d985d5b1d60ba1b60448201526064015b60405180910390fd5b61039e8282610670565b816001600160a01b03167f30385c845b448a36257a6a1716e6ad2e1bc2cbe333cde1e69fe849ad6511adfe826040516103d991815260200190565b60405180910390a25050565b6103ed6106a8565b6001600160a01b0381166104335760405162461bcd60e51b815260206004820152600d60248201526c125b9d985b1a59081d985d5b1d609a1b604482015260640161038b565b6006546040516001600160a01b038084169216907f8800deb8c31293b539eaf5391fcc88280dc58f015c043d65dd5b72a0979a1dd1905f90a3600680546001600160a01b0319166001600160a01b0392909216919091179055565b6104966106a8565b61049f5f6106d5565b565b60606004805461028c90610a55565b6006546001600160a01b031633146104f65760405162461bcd60e51b8152602060048201526009602482015268139bdd081d985d5b1d60ba1b604482015260640161038b565b6105008282610726565b816001600160a01b03167f696de425f79f4a40bc6d2122ca50507f0efbeabbff86a84871b7196ab8ea8df7826040516103d991815260200190565b5f3361031a818585610613565b6105506106a8565b6001600160a01b03811661057957604051631e4fbdf760e01b81525f600482015260240161038b565b610582816106d5565b50565b610592838383600161075a565b505050565b6001600160a01b038381165f908152600160209081526040808320938616835292905220545f1981101561060d57818110156105ff57604051637dc7a0d960e11b81526001600160a01b0384166004820152602481018290526044810183905260640161038b565b61060d84848484035f61075a565b50505050565b6001600160a01b03831661063c57604051634b637e8f60e11b81525f600482015260240161038b565b6001600160a01b0382166106655760405163ec442f0560e01b81525f600482015260240161038b565b61059283838361082c565b6001600160a01b0382166106995760405163ec442f0560e01b81525f600482015260240161038b565b6106a45f838361082c565b5050565b6005546001600160a01b0316331461049f5760405163118cdaa760e01b815233600482015260240161038b565b600580546001600160a01b038381166001600160a01b0319831681179093556040519116919082907f8be0079c531659141344cd1fd0a4f28419497f9722a3daafe3b4186f6b6457e0905f90a35050565b6001600160a01b03821661074f57604051634b637e8f60e11b81525f600482015260240161038b565b6106a4825f8361082c565b6001600160a01b0384166107835760405163e602df0560e01b81525f600482015260240161038b565b6001600160a01b0383166107ac57604051634a1406b160e11b81525f600482015260240161038b565b6001600160a01b038085165f908152600160209081526040808320938716835292905220829055801561060d57826001600160a01b0316846001600160a01b03167f8c5be1e5ebec7d5bd14f71427d1e84f3dd0314c0f7b2291e5b200ac8c7c3b9258460405161081e91815260200190565b60405180910390a350505050565b6001600160a01b038316610856578060025f82825461084b9190610a8d565b909155506108c69050565b6001600160a01b0383165f90815260208190526040902054818110156108a85760405163391434e360e21b81526001600160a01b0385166004820152602481018290526044810183905260640161038b565b6001600160a01b0384165f9081526020819052604090209082900390555b6001600160a01b0382166108e257600280548290039055610900565b6001600160a01b0382165f9081526020819052604090208054820190555b816001600160a01b0316836001600160a01b03167fddf252ad1be2c89b69c2b068fc378daa952ba7f163c4a11628f55a4df523b3ef8360405161094591815260200190565b60405180910390a3505050565b602081525f82518060208401528060208501604085015e5f604082850101526040601f19601f83011684010191505092915050565b80356001600160a01b038116811461099d575f5ffd5b919050565b5f5f604083850312156109b3575f5ffd5b6109bc83610987565b946020939093013593505050565b5f5f5f606084860312156109dc575f5ffd5b6109e584610987565b92506109f360208501610987565b929592945050506040919091013590565b5f60208284031215610a14575f5ffd5b610a1d82610987565b9392505050565b5f5f60408385031215610a35575f5ffd5b610a3e83610987565b9150610a4c60208401610987565b90509250929050565b600181811c90821680610a6957607f821691505b602082108103610a8757634e487b7160e01b5f52602260045260245ffd5b50919050565b8082018082111561032057634e487b7160e01b5f52601160045260245ffdfea264697066735822122082d84dd399b33c9e91923d6c8daa5e0d283ee020f8e9cae93f3881513416ecdb64736f6c634300081c0033",
  "linkReferences": {},
  "deployedLinkReferences": {},
  "immutableReferences": {},
  "inputSourceName": "project/contracts/Vault/stSTT.sol",
  "buildInfoId": "solc-0_8_28-1b86ad67146e668c7dfbfb0cb1512e5f8c2dc1bf"
}