{
  "_format": "hh3-artifact-1",
  "contractName": "Splitter",
  "sourceName": "contracts/Splitter/Splitter.sol",
  "abi": [
    {
      "inputs": [
        {
          "internalType": "address",
          "name": "_stSTT",
          "type": "address"
        },
        {
          "internalType": "address",
          "name": "_vault",
          "type": "address"
        },
        {
          "internalType": "uint256",
          "name": "_maturity",
          "type": "uint256"
        }
      ],
      "stateMutability": "payable",
      "type": "constructor"
    },
    {
      "stateMutability": "payable",
      "type": "fallback"
    },
    {
      "inputs": [],
      "name": "RATE_PRECISION",
      "outputs": [
        {
          "internalType": "uint256",
          "name": "",
          "type": "uint256"
        }
      ],
      "stateMutability": "view",
      "type": "function"
    },
    {
      "inputs": [
        {
          "internalType": "uint256",
          "name": "_amount",
          "type": "uint256"
        }
      ],
      "name": "claimYield",
      "outputs": [],
      "stateMutability": "nonpayable",
      "type": "function"
    },
    {
      "inputs": [],
      "name": "getExchangeRate",
      "outputs": [
        {
          "internalType": "uint256",
          "name": "",
          "type": "uint256"
        }
      ],
      "stateMutability": "view",
      "type": "function"
    },
    {
      "inputs": [],
      "name": "maturity",
      "outputs": [
        {
          "internalType": "uint256",
          "name": "",
          "type": "uint256"
        }
      ],
      "stateMutability": "view",
      "type": "function"
    },
    {
      "inputs": [],
      "name": "ptToken",
      "outputs": [
        {
          "internalType": "contract PT",
          "name": "",
          "type": "address"
        }
      ],
      "stateMutability": "view",
      "type": "function"
    },
    {
      "inputs": [
        {
          "internalType": "uint256",
          "name": "_amount",
          "type": "uint256"
        }
      ],
      "name": "recombine",
      "outputs": [],
      "stateMutability": "nonpayable",
      "type": "function"
    },
    {
      "inputs": [
        {
          "internalType": "uint256",
          "name": "_amount",
          "type": "uint256"
        }
      ],
      "name": "redeemSTTwithPT",
      "outputs": [],
      "stateMutability": "nonpayable",
      "type": "function"
    },
    {
      "inputs": [
        {
          "internalType": "uint256",
          "name": "_amount",
          "type": "uint256"
        }
      ],
      "name": "returnedYield",
      "outputs": [
        {
          "internalType": "uint256",
          "name": "",
          "type": "uint256"
        }
      ],
      "stateMutability": "view",
      "type": "function"
    },
    {
      "inputs": [
        {
          "internalType": "uint256",
          "name": "_amount",
          "type": "uint256"
        }
      ],
      "name": "split",
      "outputs": [],
      "stateMutability": "nonpayable",
      "type": "function"
    },
    {
      "inputs": [],
      "name": "stToken",
      "outputs": [
        {
          "internalType": "contract stSTT",
          "name": "",
          "type": "address"
        }
      ],
      "stateMutability": "view",
      "type": "function"
    },
    {
      "inputs": [],
      "name": "startRate",
      "outputs": [
        {
          "internalType": "uint256",
          "name": "",
          "type": "uint256"
        }
      ],
      "stateMutability": "view",
      "type": "function"
    },
    {
      "inputs": [],
      "name": "vault",
      "outputs": [
        {
          "internalType": "contract Vault",
          "name": "",
          "type": "address"
        }
      ],
      "stateMutability": "view",
      "type": "function"
    },
    {
      "inputs": [],
      "name": "ytToken",
      "outputs": [
        {
          "internalType": "contract YT",
          "name": "",
          "type": "address"
        }
      ],
      "stateMutability": "view",
      "type": "function"
    },
    {
      "stateMutability": "payable",
      "type": "receive"
    }
  ],
  "bytecode": "0x60806040526040516129a43803806129a48339810160408190526100229161028c565b4281116100755760405162461bcd60e51b815260206004820152601e60248201527f4d61747572697479206d75737420626520696e20746865206675747572650000604482015260640160405180910390fd5b5f80546001600160a01b038581166001600160a01b031992831617835560038054918616919092161790556004829055670de0b6b3a76400006005556040516250542d60e81b60208201526023810183905260430160408051601f19818403018152908290526004546259542d60e81b6020840152602383015291505f9060430160405160208183030381529060405290508160405161011490610257565b61011e91906102f3565b604051809103905ff080158015610137573d5f5f3e3d5ffd5b50600180546001600160a01b0319166001600160a01b0392909216919091179055604051819061016690610264565b6101709190610332565b604051809103905ff080158015610189573d5f5f3e3d5ffd5b50600280546001600160a01b0319166001600160a01b0392831617905560015460405163c93fc83d60e01b815230600482015291169063c93fc83d906024015f604051808303815f87803b1580156101df575f5ffd5b505af11580156101f1573d5f5f3e3d5ffd5b505060025460405163c93fc83d60e01b81523060048201526001600160a01b03909116925063c93fc83d91506024015f604051808303815f87803b158015610237575f5ffd5b505af1158015610249573d5f5f3e3d5ffd5b505050505050505050610366565b610d5d80610eea83390190565b610d5d80611c4783390190565b80516001600160a01b0381168114610287575f5ffd5b919050565b5f5f5f6060848603121561029e575f5ffd5b6102a784610271565b92506102b560208501610271565b9150604084015190509250925092565b5f81518084528060208401602086015e5f602082860101526020601f19601f83011685010191505092915050565b60408152600f60408201526e283934b731b4b83632902a37b5b2b760891b6060820152608060208201525f61032b60808301846102c5565b9392505050565b60408152600b60408201526a2cb4b2b632102a37b5b2b760a91b6060820152608060208201525f61032b60808301846102c5565b610b77806103735f395ff3fe6080604052600436106100bb575f3560e01c80635a45bb9411610078578063dbceb00511610055578063dbceb005146101e6578063e018b0ef14610205578063e6aa216c14610224578063fbfa77cf1461023857005b80635a45bb941461018957806391c7c79c146101a8578063b57c1f06146101c757005b80631254f0dc146100bd578063204f83f9146100e557806323b6443e146100fa5780632b3ba6811461013057806340bd2e231461014b578063422030151461016a575b005b3480156100c8575f5ffd5b506100d260055481565b6040519081526020015b60405180910390f35b3480156100f0575f5ffd5b506100d260045481565b348015610105575f5ffd5b505f54610118906001600160a01b031681565b6040516001600160a01b0390911681526020016100dc565b34801561013b575f5ffd5b506100d2670de0b6b3a764000081565b348015610156575f5ffd5b506100bb610165366004610a28565b610257565b348015610175575f5ffd5b50600254610118906001600160a01b031681565b348015610194575f5ffd5b506100d26101a3366004610a28565b610355565b3480156101b3575f5ffd5b506100bb6101c2366004610a28565b6103ba565b3480156101d2575f5ffd5b506100bb6101e1366004610a28565b610596565b3480156101f1575f5ffd5b506100bb610200366004610a28565b610843565b348015610210575f5ffd5b50600154610118906001600160a01b031681565b34801561022f575f5ffd5b506100d26109b8565b348015610243575f5ffd5b50600354610118906001600160a01b031681565b805f81116102805760405162461bcd60e51b815260040161027790610a3f565b60405180910390fd5b5f61028a83610355565b600254604051632770a7eb60e21b8152336004820152602481018690529192506001600160a01b031690639dc29fac906044015f604051808303815f87803b1580156102d4575f5ffd5b505af11580156102e6573d5f5f3e3d5ffd5b50506040515f925033915083908381818185875af1925050503d805f8114610329576040519150601f19603f3d011682016040523d82523d5f602084013e61032e565b606091505b505090508061034f5760405162461bcd60e51b815260040161027790610a74565b50505050565b5f815f81116103765760405162461bcd60e51b815260040161027790610a3f565b5f61037f6109b8565b90505f600554826103909190610ab5565b90505f670de0b6b3a76400006103a68388610ace565b6103b09190610ae5565b9695505050505050565b805f81116103da5760405162461bcd60e51b815260040161027790610a3f565b60045442101561041e5760405162461bcd60e51b815260206004820152600f60248201526e139bdd081e595d081b585d1d5c9959608a1b6044820152606401610277565b6001546040516370a0823160e01b815233600482015283916001600160a01b0316906370a0823190602401602060405180830381865afa158015610464573d5f5f3e3d5ffd5b505050506040513d601f19601f820116820180604052508101906104889190610b04565b10156104cd5760405162461bcd60e51b81526020600482015260146024820152734e6f7420656e6f75676820505420746f6b656e7360601b6044820152606401610277565b600154604051632770a7eb60e21b8152336004820152602481018490526001600160a01b0390911690639dc29fac906044015f604051808303815f87803b158015610516575f5ffd5b505af1158015610528573d5f5f3e3d5ffd5b50506040515f925033915084908381818185875af1925050503d805f811461056b576040519150601f19603f3d011682016040523d82523d5f602084013e610570565b606091505b50509050806105915760405162461bcd60e51b815260040161027790610a74565b505050565b805f81116105b65760405162461bcd60e51b815260040161027790610a3f565b6001546040516370a0823160e01b815233600482015283916001600160a01b0316906370a0823190602401602060405180830381865afa1580156105fc573d5f5f3e3d5ffd5b505050506040513d601f19601f820116820180604052508101906106209190610b04565b10156106655760405162461bcd60e51b81526020600482015260146024820152734e6f7420656e6f75676820505420746f6b656e7360601b6044820152606401610277565b6002546040516370a0823160e01b815233600482015283916001600160a01b0316906370a0823190602401602060405180830381865afa1580156106ab573d5f5f3e3d5ffd5b505050506040513d601f19601f820116820180604052508101906106cf9190610b04565b10156107145760405162461bcd60e51b81526020600482015260146024820152734e6f7420656e6f75676820595420746f6b656e7360601b6044820152606401610277565b600154604051632770a7eb60e21b8152336004820152602481018490526001600160a01b0390911690639dc29fac906044015f604051808303815f87803b15801561075d575f5ffd5b505af115801561076f573d5f5f3e3d5ffd5b5050600254604051632770a7eb60e21b8152336004820152602481018690526001600160a01b039091169250639dc29fac91506044015f604051808303815f87803b1580156107bc575f5ffd5b505af11580156107ce573d5f5f3e3d5ffd5b50505f5460405163a9059cbb60e01b8152336004820152602481018690526001600160a01b03909116925063a9059cbb91506044016020604051808303815f875af115801561081f573d5f5f3e3d5ffd5b505050506040513d601f19601f820116820180604052508101906105919190610b1b565b805f81116108635760405162461bcd60e51b815260040161027790610a3f565b5f546040516323b872dd60e01b8152336004820152306024820152604481018490526001600160a01b03909116906323b872dd906064016020604051808303815f875af11580156108b6573d5f5f3e3d5ffd5b505050506040513d601f19601f820116820180604052508101906108da9190610b1b565b6108f65760405162461bcd60e51b815260040161027790610a74565b6001546040516340c10f1960e01b8152336004820152602481018490526001600160a01b03909116906340c10f19906044015f604051808303815f87803b15801561093f575f5ffd5b505af1158015610951573d5f5f3e3d5ffd5b50506002546040516340c10f1960e01b8152336004820152602481018690526001600160a01b0390911692506340c10f1991506044015f604051808303815f87803b15801561099e575f5ffd5b505af11580156109b0573d5f5f3e3d5ffd5b505050505050565b60035460408051633ba0b9a960e01b815290515f926001600160a01b031691633ba0b9a99160048083019260209291908290030181865afa1580156109ff573d5f5f3e3d5ffd5b505050506040513d601f19601f82011682018060405250810190610a239190610b04565b905090565b5f60208284031215610a38575f5ffd5b5035919050565b6020808252818101527f416d6f756e74206e6565647320746f206265206c6172676572207468616e2030604082015260600190565b60208082526013908201527214d515081d1c985b9cd9995c8819985a5b1959606a1b604082015260600190565b634e487b7160e01b5f52601160045260245ffd5b81810381811115610ac857610ac8610aa1565b92915050565b8082028115828204841417610ac857610ac8610aa1565b5f82610aff57634e487b7160e01b5f52601260045260245ffd5b500490565b5f60208284031215610b14575f5ffd5b5051919050565b5f60208284031215610b2b575f5ffd5b81518015158114610b3a575f5ffd5b939250505056fea2646970667358221220abef89958b8c3a589ed0231ab976dbbc06746b6c846f403935551c92e086b1b764736f6c634300081c0033608060405234801561000f575f5ffd5b50604051610d5d380380610d5d83398101604081905261002e91610179565b338282600361003d8382610262565b50600461004a8282610262565b5050506001600160a01b03811661007a57604051631e4fbdf760e01b81525f600482015260240160405180910390fd5b6100838161008b565b50505061031c565b600580546001600160a01b038381166001600160a01b0319831681179093556040519116919082907f8be0079c531659141344cd1fd0a4f28419497f9722a3daafe3b4186f6b6457e0905f90a35050565b634e487b7160e01b5f52604160045260245ffd5b5f82601f8301126100ff575f5ffd5b81516001600160401b03811115610118576101186100dc565b604051601f8201601f19908116603f011681016001600160401b0381118282101715610146576101466100dc565b60405281815283820160200185101561015d575f5ffd5b8160208501602083015e5f918101602001919091529392505050565b5f5f6040838503121561018a575f5ffd5b82516001600160401b0381111561019f575f5ffd5b6101ab858286016100f0565b602085015190935090506001600160401b038111156101c8575f5ffd5b6101d4858286016100f0565b9150509250929050565b600181811c908216806101f257607f821691505b60208210810361021057634e487b7160e01b5f52602260045260245ffd5b50919050565b601f82111561025d57805f5260205f20601f840160051c8101602085101561023b5750805b601f840160051c820191505b8181101561025a575f8155600101610247565b50505b505050565b81516001600160401b0381111561027b5761027b6100dc565b61028f8161028984546101de565b84610216565b6020601f8211600181146102c1575f83156102aa5750848201515b5f19600385901b1c1916600184901b17845561025a565b5f84815260208120601f198516915b828110156102f057878501518255602094850194600190920191016102d0565b508482101561030d57868401515f19600387901b60f8161c191681555b50505050600190811b01905550565b610a34806103295f395ff3fe608060405234801561000f575f5ffd5b50600436106100fb575f3560e01c8063715018a611610093578063a9059cbb11610063578063a9059cbb14610210578063c93fc83d14610223578063dd62ed3e14610236578063f2fde38b1461026e575f5ffd5b8063715018a6146101dc5780638da5cb5b146101e457806395d89b41146101f55780639dc29fac146101fd575f5ffd5b8063313ce567116100ce578063313ce567146101655780633cd8045e1461017457806340c10f191461019f57806370a08231146101b4575f5ffd5b806306fdde03146100ff578063095ea7b31461011d57806318160ddd1461014057806323b872dd14610152575b5f5ffd5b610107610281565b60405161011491906108a4565b60405180910390f35b61013061012b3660046108f4565b610311565b6040519015158152602001610114565b6002545b604051908152602001610114565b61013061016036600461091c565b61032a565b60405160128152602001610114565b600654610187906001600160a01b031681565b6040516001600160a01b039091168152602001610114565b6101b26101ad3660046108f4565b61034d565b005b6101446101c2366004610956565b6001600160a01b03165f9081526020819052604090205490565b6101b26103a9565b6005546001600160a01b0316610187565b6101076103bc565b6101b261020b3660046108f4565b6103cb565b61013061021e3660046108f4565b61041e565b6101b2610231366004610956565b61042b565b610144610244366004610976565b6001600160a01b039182165f90815260016020908152604080832093909416825291909152205490565b6101b261027c366004610956565b61049e565b606060038054610290906109a7565b80601f01602080910402602001604051908101604052809291908181526020018280546102bc906109a7565b80156103075780601f106102de57610100808354040283529160200191610307565b820191905f5260205f20905b8154815290600101906020018083116102ea57829003601f168201915b5050505050905090565b5f3361031e8185856104db565b60019150505b92915050565b5f336103378582856104ed565b610342858585610569565b506001949350505050565b6006546001600160a01b0316331461039b5760405162461bcd60e51b815260206004820152600c60248201526b2737ba1039b83634ba3a32b960a11b60448201526064015b60405180910390fd5b6103a582826105c6565b5050565b6103b16105fa565b6103ba5f610627565b565b606060048054610290906109a7565b6006546001600160a01b031633146104145760405162461bcd60e51b815260206004820152600c60248201526b2737ba1039b83634ba3a32b960a11b6044820152606401610392565b6103a58282610678565b5f3361031e818585610569565b6104336105fa565b6001600160a01b03811661047c5760405162461bcd60e51b815260206004820152601060248201526f24b73b30b634b21039b83634ba3a32b960811b6044820152606401610392565b600680546001600160a01b0319166001600160a01b0392909216919091179055565b6104a66105fa565b6001600160a01b0381166104cf57604051631e4fbdf760e01b81525f6004820152602401610392565b6104d881610627565b50565b6104e883838360016106ac565b505050565b6001600160a01b038381165f908152600160209081526040808320938616835292905220545f19811015610563578181101561055557604051637dc7a0d960e11b81526001600160a01b03841660048201526024810182905260448101839052606401610392565b61056384848484035f6106ac565b50505050565b6001600160a01b03831661059257604051634b637e8f60e11b81525f6004820152602401610392565b6001600160a01b0382166105bb5760405163ec442f0560e01b81525f6004820152602401610392565b6104e883838361077e565b6001600160a01b0382166105ef5760405163ec442f0560e01b81525f6004820152602401610392565b6103a55f838361077e565b6005546001600160a01b031633146103ba5760405163118cdaa760e01b8152336004820152602401610392565b600580546001600160a01b038381166001600160a01b0319831681179093556040519116919082907f8be0079c531659141344cd1fd0a4f28419497f9722a3daafe3b4186f6b6457e0905f90a35050565b6001600160a01b0382166106a157604051634b637e8f60e11b81525f6004820152602401610392565b6103a5825f8361077e565b6001600160a01b0384166106d55760405163e602df0560e01b81525f6004820152602401610392565b6001600160a01b0383166106fe57604051634a1406b160e11b81525f6004820152602401610392565b6001600160a01b038085165f908152600160209081526040808320938716835292905220829055801561056357826001600160a01b0316846001600160a01b03167f8c5be1e5ebec7d5bd14f71427d1e84f3dd0314c0f7b2291e5b200ac8c7c3b9258460405161077091815260200190565b60405180910390a350505050565b6001600160a01b0383166107a8578060025f82825461079d91906109df565b909155506108189050565b6001600160a01b0383165f90815260208190526040902054818110156107fa5760405163391434e360e21b81526001600160a01b03851660048201526024810182905260448101839052606401610392565b6001600160a01b0384165f9081526020819052604090209082900390555b6001600160a01b03821661083457600280548290039055610852565b6001600160a01b0382165f9081526020819052604090208054820190555b816001600160a01b0316836001600160a01b03167fddf252ad1be2c89b69c2b068fc378daa952ba7f163c4a11628f55a4df523b3ef8360405161089791815260200190565b60405180910390a3505050565b602081525f82518060208401528060208501604085015e5f604082850101526040601f19601f83011684010191505092915050565b80356001600160a01b03811681146108ef575f5ffd5b919050565b5f5f60408385031215610905575f5ffd5b61090e836108d9565b946020939093013593505050565b5f5f5f6060848603121561092e575f5ffd5b610937846108d9565b9250610945602085016108d9565b929592945050506040919091013590565b5f60208284031215610966575f5ffd5b61096f826108d9565b9392505050565b5f5f60408385031215610987575f5ffd5b610990836108d9565b915061099e602084016108d9565b90509250929050565b600181811c908216806109bb57607f821691505b6020821081036109d957634e487b7160e01b5f52602260045260245ffd5b50919050565b8082018082111561032457634e487b7160e01b5f52601160045260245ffdfea2646970667358221220ecd713f375ebfc0f6a5cbdbc14ba188c68aee7ff67b1fd3cdd4d31a5181305b964736f6c634300081c0033608060405234801561000f575f5ffd5b50604051610d5d380380610d5d83398101604081905261002e91610179565b338282600361003d8382610262565b50600461004a8282610262565b5050506001600160a01b03811661007a57604051631e4fbdf760e01b81525f600482015260240160405180910390fd5b6100838161008b565b50505061031c565b600580546001600160a01b038381166001600160a01b0319831681179093556040519116919082907f8be0079c531659141344cd1fd0a4f28419497f9722a3daafe3b4186f6b6457e0905f90a35050565b634e487b7160e01b5f52604160045260245ffd5b5f82601f8301126100ff575f5ffd5b81516001600160401b03811115610118576101186100dc565b604051601f8201601f19908116603f011681016001600160401b0381118282101715610146576101466100dc565b60405281815283820160200185101561015d575f5ffd5b8160208501602083015e5f918101602001919091529392505050565b5f5f6040838503121561018a575f5ffd5b82516001600160401b0381111561019f575f5ffd5b6101ab858286016100f0565b602085015190935090506001600160401b038111156101c8575f5ffd5b6101d4858286016100f0565b9150509250929050565b600181811c908216806101f257607f821691505b60208210810361021057634e487b7160e01b5f52602260045260245ffd5b50919050565b601f82111561025d57805f5260205f20601f840160051c8101602085101561023b5750805b601f840160051c820191505b8181101561025a575f8155600101610247565b50505b505050565b81516001600160401b0381111561027b5761027b6100dc565b61028f8161028984546101de565b84610216565b6020601f8211600181146102c1575f83156102aa5750848201515b5f19600385901b1c1916600184901b17845561025a565b5f84815260208120601f198516915b828110156102f057878501518255602094850194600190920191016102d0565b508482101561030d57868401515f19600387901b60f8161c191681555b50505050600190811b01905550565b610a34806103295f395ff3fe608060405234801561000f575f5ffd5b50600436106100fb575f3560e01c8063715018a611610093578063a9059cbb11610063578063a9059cbb14610210578063c93fc83d14610223578063dd62ed3e14610236578063f2fde38b1461026e575f5ffd5b8063715018a6146101dc5780638da5cb5b146101e457806395d89b41146101f55780639dc29fac146101fd575f5ffd5b8063313ce567116100ce578063313ce567146101655780633cd8045e1461017457806340c10f191461019f57806370a08231146101b4575f5ffd5b806306fdde03146100ff578063095ea7b31461011d57806318160ddd1461014057806323b872dd14610152575b5f5ffd5b610107610281565b60405161011491906108a4565b60405180910390f35b61013061012b3660046108f4565b610311565b6040519015158152602001610114565b6002545b604051908152602001610114565b61013061016036600461091c565b61032a565b60405160128152602001610114565b600654610187906001600160a01b031681565b6040516001600160a01b039091168152602001610114565b6101b26101ad3660046108f4565b61034d565b005b6101446101c2366004610956565b6001600160a01b03165f9081526020819052604090205490565b6101b26103a9565b6005546001600160a01b0316610187565b6101076103bc565b6101b261020b3660046108f4565b6103cb565b61013061021e3660046108f4565b61041e565b6101b2610231366004610956565b61042b565b610144610244366004610976565b6001600160a01b039182165f90815260016020908152604080832093909416825291909152205490565b6101b261027c366004610956565b61049e565b606060038054610290906109a7565b80601f01602080910402602001604051908101604052809291908181526020018280546102bc906109a7565b80156103075780601f106102de57610100808354040283529160200191610307565b820191905f5260205f20905b8154815290600101906020018083116102ea57829003601f168201915b5050505050905090565b5f3361031e8185856104db565b60019150505b92915050565b5f336103378582856104ed565b610342858585610569565b506001949350505050565b6006546001600160a01b0316331461039b5760405162461bcd60e51b815260206004820152600c60248201526b2737ba1039b83634ba3a32b960a11b60448201526064015b60405180910390fd5b6103a582826105c6565b5050565b6103b16105fa565b6103ba5f610627565b565b606060048054610290906109a7565b6006546001600160a01b031633146104145760405162461bcd60e51b815260206004820152600c60248201526b2737ba1039b83634ba3a32b960a11b6044820152606401610392565b6103a58282610678565b5f3361031e818585610569565b6104336105fa565b6001600160a01b03811661047c5760405162461bcd60e51b815260206004820152601060248201526f24b73b30b634b21039b83634ba3a32b960811b6044820152606401610392565b600680546001600160a01b0319166001600160a01b0392909216919091179055565b6104a66105fa565b6001600160a01b0381166104cf57604051631e4fbdf760e01b81525f6004820152602401610392565b6104d881610627565b50565b6104e883838360016106ac565b505050565b6001600160a01b038381165f908152600160209081526040808320938616835292905220545f19811015610563578181101561055557604051637dc7a0d960e11b81526001600160a01b03841660048201526024810182905260448101839052606401610392565b61056384848484035f6106ac565b50505050565b6001600160a01b03831661059257604051634b637e8f60e11b81525f6004820152602401610392565b6001600160a01b0382166105bb5760405163ec442f0560e01b81525f6004820152602401610392565b6104e883838361077e565b6001600160a01b0382166105ef5760405163ec442f0560e01b81525f6004820152602401610392565b6103a55f838361077e565b6005546001600160a01b031633146103ba5760405163118cdaa760e01b8152336004820152602401610392565b600580546001600160a01b038381166001600160a01b0319831681179093556040519116919082907f8be0079c531659141344cd1fd0a4f28419497f9722a3daafe3b4186f6b6457e0905f90a35050565b6001600160a01b0382166106a157604051634b637e8f60e11b81525f6004820152602401610392565b6103a5825f8361077e565b6001600160a01b0384166106d55760405163e602df0560e01b81525f6004820152602401610392565b6001600160a01b0383166106fe57604051634a1406b160e11b81525f6004820152602401610392565b6001600160a01b038085165f908152600160209081526040808320938716835292905220829055801561056357826001600160a01b0316846001600160a01b03167f8c5be1e5ebec7d5bd14f71427d1e84f3dd0314c0f7b2291e5b200ac8c7c3b9258460405161077091815260200190565b60405180910390a350505050565b6001600160a01b0383166107a8578060025f82825461079d91906109df565b909155506108189050565b6001600160a01b0383165f90815260208190526040902054818110156107fa5760405163391434e360e21b81526001600160a01b03851660048201526024810182905260448101839052606401610392565b6001600160a01b0384165f9081526020819052604090209082900390555b6001600160a01b03821661083457600280548290039055610852565b6001600160a01b0382165f9081526020819052604090208054820190555b816001600160a01b0316836001600160a01b03167fddf252ad1be2c89b69c2b068fc378daa952ba7f163c4a11628f55a4df523b3ef8360405161089791815260200190565b60405180910390a3505050565b602081525f82518060208401528060208501604085015e5f604082850101526040601f19601f83011684010191505092915050565b80356001600160a01b03811681146108ef575f5ffd5b919050565b5f5f60408385031215610905575f5ffd5b61090e836108d9565b946020939093013593505050565b5f5f5f6060848603121561092e575f5ffd5b610937846108d9565b9250610945602085016108d9565b929592945050506040919091013590565b5f60208284031215610966575f5ffd5b61096f826108d9565b9392505050565b5f5f60408385031215610987575f5ffd5b610990836108d9565b915061099e602084016108d9565b90509250929050565b600181811c908216806109bb57607f821691505b6020821081036109d957634e487b7160e01b5f52602260045260245ffd5b50919050565b8082018082111561032457634e487b7160e01b5f52601160045260245ffdfea2646970667358221220d6cda91b322fd87872aa38af1a1bc13ef6058acbdb76d1b7fb0eb9810f43eb9164736f6c634300081c0033",
  "linkReferences": {},
  "deployedLinkReferences": {},
  "immutableReferences": {},
  "inputSourceName": "project/contracts/Splitter/Splitter.sol",
  "buildInfoId": "solc-0_8_28-95df7285ed1c4d5a1ec7968e7219dde32c160d03"
}