{
  "_format": "hh3-artifact-1",
  "contractName": "Splitter",
  "sourceName": "contracts/Splitter/Splitter.sol",
  "abi": [
    {
      "inputs": [
        {
          "internalType": "address",
          "name": "_stSTT",
          "type": "address"
        },
        {
          "internalType": "address",
          "name": "_vault",
          "type": "address"
        },
        {
          "internalType": "uint256",
          "name": "_maturity",
          "type": "uint256"
        }
      ],
      "stateMutability": "payable",
      "type": "constructor"
    },
    {
      "inputs": [
        {
          "internalType": "address",
          "name": "owner",
          "type": "address"
        }
      ],
      "name": "OwnableInvalidOwner",
      "type": "error"
    },
    {
      "inputs": [
        {
          "internalType": "address",
          "name": "account",
          "type": "address"
        }
      ],
      "name": "OwnableUnauthorizedAccount",
      "type": "error"
    },
    {
      "anonymous": false,
      "inputs": [
        {
          "indexed": true,
          "internalType": "address",
          "name": "previousOwner",
          "type": "address"
        },
        {
          "indexed": true,
          "internalType": "address",
          "name": "newOwner",
          "type": "address"
        }
      ],
      "name": "OwnershipTransferred",
      "type": "event"
    },
    {
      "anonymous": false,
      "inputs": [
        {
          "indexed": true,
          "internalType": "address",
          "name": "oldVault",
          "type": "address"
        },
        {
          "indexed": true,
          "internalType": "address",
          "name": "newVault",
          "type": "address"
        }
      ],
      "name": "VaultUpdated",
      "type": "event"
    },
    {
      "stateMutability": "payable",
      "type": "fallback"
    },
    {
      "inputs": [],
      "name": "RATE_PRECISION",
      "outputs": [
        {
          "internalType": "uint256",
          "name": "",
          "type": "uint256"
        }
      ],
      "stateMutability": "view",
      "type": "function"
    },
    {
      "inputs": [
        {
          "internalType": "uint256",
          "name": "_amount",
          "type": "uint256"
        }
      ],
      "name": "claimYield",
      "outputs": [],
      "stateMutability": "nonpayable",
      "type": "function"
    },
    {
      "inputs": [],
      "name": "getExchangeRate",
      "outputs": [
        {
          "internalType": "uint256",
          "name": "",
          "type": "uint256"
        }
      ],
      "stateMutability": "view",
      "type": "function"
    },
    {
      "inputs": [],
      "name": "maturity",
      "outputs": [
        {
          "internalType": "uint256",
          "name": "",
          "type": "uint256"
        }
      ],
      "stateMutability": "view",
      "type": "function"
    },
    {
      "inputs": [],
      "name": "owner",
      "outputs": [
        {
          "internalType": "address",
          "name": "",
          "type": "address"
        }
      ],
      "stateMutability": "view",
      "type": "function"
    },
    {
      "inputs": [],
      "name": "ptToken",
      "outputs": [
        {
          "internalType": "contract PT",
          "name": "",
          "type": "address"
        }
      ],
      "stateMutability": "view",
      "type": "function"
    },
    {
      "inputs": [
        {
          "internalType": "uint256",
          "name": "_amount",
          "type": "uint256"
        }
      ],
      "name": "recombine",
      "outputs": [],
      "stateMutability": "nonpayable",
      "type": "function"
    },
    {
      "inputs": [
        {
          "internalType": "uint256",
          "name": "_amount",
          "type": "uint256"
        }
      ],
      "name": "redeemSTTwithPT",
      "outputs": [],
      "stateMutability": "nonpayable",
      "type": "function"
    },
    {
      "inputs": [],
      "name": "renounceOwnership",
      "outputs": [],
      "stateMutability": "nonpayable",
      "type": "function"
    },
    {
      "inputs": [
        {
          "internalType": "uint256",
          "name": "_amount",
          "type": "uint256"
        }
      ],
      "name": "returnedYield",
      "outputs": [
        {
          "internalType": "uint256",
          "name": "",
          "type": "uint256"
        }
      ],
      "stateMutability": "view",
      "type": "function"
    },
    {
      "inputs": [
        {
          "internalType": "address",
          "name": "_newVault",
          "type": "address"
        }
      ],
      "name": "setVault",
      "outputs": [],
      "stateMutability": "nonpayable",
      "type": "function"
    },
    {
      "inputs": [
        {
          "internalType": "uint256",
          "name": "_amount",
          "type": "uint256"
        }
      ],
      "name": "split",
      "outputs": [],
      "stateMutability": "nonpayable",
      "type": "function"
    },
    {
      "inputs": [],
      "name": "stToken",
      "outputs": [
        {
          "internalType": "contract stSTT",
          "name": "",
          "type": "address"
        }
      ],
      "stateMutability": "view",
      "type": "function"
    },
    {
      "inputs": [],
      "name": "startRate",
      "outputs": [
        {
          "internalType": "uint256",
          "name": "",
          "type": "uint256"
        }
      ],
      "stateMutability": "view",
      "type": "function"
    },
    {
      "inputs": [
        {
          "internalType": "address",
          "name": "newOwner",
          "type": "address"
        }
      ],
      "name": "transferOwnership",
      "outputs": [],
      "stateMutability": "nonpayable",
      "type": "function"
    },
    {
      "inputs": [],
      "name": "vault",
      "outputs": [
        {
          "internalType": "contract Vault",
          "name": "",
          "type": "address"
        }
      ],
      "stateMutability": "view",
      "type": "function"
    },
    {
      "inputs": [],
      "name": "ytToken",
      "outputs": [
        {
          "internalType": "contract YT",
          "name": "",
          "type": "address"
        }
      ],
      "stateMutability": "view",
      "type": "function"
    },
    {
      "stateMutability": "payable",
      "type": "receive"
    }
  ],
  "bytecode": "0x6080604052604051612deb380380612deb83398101604081905261002291610319565b338061004857604051631e4fbdf760e01b81525f60048201526024015b60405180910390fd5b61005181610295565b504281116100a15760405162461bcd60e51b815260206004820152601e60248201527f4d61747572697479206d75737420626520696e20746865206675747572650000604482015260640161003f565b600180546001600160a01b038581166001600160a01b03199283161790925560048054928516929091169190911790556005819055670de0b6b3a76400006006556040516850542d73745354542d60b81b6020820152602981018290525f9060490160408051601f19818403018152908290526005546716550b5cdd14d51560c21b6020840152602883015291505f90604801604051602081830303815290604052905081604051610152906102e4565b61015c9190610380565b604051809103905ff080158015610175573d5f5f3e3d5ffd5b50600280546001600160a01b0319166001600160a01b039290921691909117905560405181906101a4906102f1565b6101ae91906103bf565b604051809103905ff0801580156101c7573d5f5f3e3d5ffd5b50600380546001600160a01b0319166001600160a01b0392831617905560025460405163c93fc83d60e01b815230600482015291169063c93fc83d906024015f604051808303815f87803b15801561021d575f5ffd5b505af115801561022f573d5f5f3e3d5ffd5b505060035460405163c93fc83d60e01b81523060048201526001600160a01b03909116925063c93fc83d91506024015f604051808303815f87803b158015610275575f5ffd5b505af1158015610287573d5f5f3e3d5ffd5b5050505050505050506103f3565b5f80546001600160a01b038381166001600160a01b0319831681178455604051919092169283917f8be0079c531659141344cd1fd0a4f28419497f9722a3daafe3b4186f6b6457e09190a35050565b610e18806111bb83390190565b610e1880611fd383390190565b80516001600160a01b0381168114610314575f5ffd5b919050565b5f5f5f6060848603121561032b575f5ffd5b610334846102fe565b9250610342602085016102fe565b9150604084015190509250925092565b5f81518084528060208401602086015e5f602082860101526020601f19601f83011685010191505092915050565b60408152600f60408201526e283934b731b4b83632902a37b5b2b760891b6060820152608060208201525f6103b86080830184610352565b9392505050565b60408152600b60408201526a2cb4b2b632102a37b5b2b760a91b6060820152608060208201525f6103b86080830184610352565b610dbb806104005f395ff3fe6080604052600436106100f4575f3560e01c8063715018a61161008e578063dbceb00511610060578063dbceb0051461026f578063e018b0ef1461028e578063e6aa216c146102ad578063f2fde38b146102c1578063fbfa77cf146102e057005b8063715018a6146102015780638da5cb5b1461021557806391c7c79c14610231578063b57c1f061461025057005b806340bd2e23116100c757806340bd2e231461018557806342203015146101a45780635a45bb94146101c35780636817031b146101e257005b80631254f0dc146100f6578063204f83f91461011e57806323b6443e146101335780632b3ba6811461016a575b005b348015610101575f5ffd5b5061010b60065481565b6040519081526020015b60405180910390f35b348015610129575f5ffd5b5061010b60055481565b34801561013e575f5ffd5b50600154610152906001600160a01b031681565b6040516001600160a01b039091168152602001610115565b348015610175575f5ffd5b5061010b670de0b6b3a764000081565b348015610190575f5ffd5b506100f461019f366004610c46565b6102ff565b3480156101af575f5ffd5b50600354610152906001600160a01b031681565b3480156101ce575f5ffd5b5061010b6101dd366004610c46565b6103fd565b3480156101ed575f5ffd5b506100f46101fc366004610c5d565b610462565b34801561020c575f5ffd5b506100f4610501565b348015610220575f5ffd5b505f546001600160a01b0316610152565b34801561023c575f5ffd5b506100f461024b366004610c46565b610514565b34801561025b575f5ffd5b506100f461026a366004610c46565b6106f0565b34801561027a575f5ffd5b506100f4610289366004610c46565b61099e565b348015610299575f5ffd5b50600254610152906001600160a01b031681565b3480156102b8575f5ffd5b5061010b610b14565b3480156102cc575f5ffd5b506100f46102db366004610c5d565b610b8e565b3480156102eb575f5ffd5b50600454610152906001600160a01b031681565b805f81116103285760405162461bcd60e51b815260040161031f90610c8a565b60405180910390fd5b5f610332836103fd565b600354604051632770a7eb60e21b8152336004820152602481018690529192506001600160a01b031690639dc29fac906044015f604051808303815f87803b15801561037c575f5ffd5b505af115801561038e573d5f5f3e3d5ffd5b50506040515f925033915083908381818185875af1925050503d805f81146103d1576040519150601f19603f3d011682016040523d82523d5f602084013e6103d6565b606091505b50509050806103f75760405162461bcd60e51b815260040161031f90610cbf565b50505050565b5f815f811161041e5760405162461bcd60e51b815260040161031f90610c8a565b5f610427610b14565b90505f600654826104389190610d00565b90505f670de0b6b3a764000061044e8388610d19565b6104589190610d30565b9695505050505050565b61046a610bcb565b6001600160a01b0381166104b05760405162461bcd60e51b815260206004820152600d60248201526c125b9d985b1a59081d985d5b1d609a1b604482015260640161031f565b600480546001600160a01b038381166001600160a01b0319831681179093556040519116919082907f483bdedaaf23706a9800ac1af0d852b34927780d79f9d6ba60a80c7cad75ea39905f90a35050565b610509610bcb565b6105125f610bf7565b565b805f81116105345760405162461bcd60e51b815260040161031f90610c8a565b6005544210156105785760405162461bcd60e51b815260206004820152600f60248201526e139bdd081e595d081b585d1d5c9959608a1b604482015260640161031f565b6002546040516370a0823160e01b815233600482015283916001600160a01b0316906370a0823190602401602060405180830381865afa1580156105be573d5f5f3e3d5ffd5b505050506040513d601f19601f820116820180604052508101906105e29190610d4f565b10156106275760405162461bcd60e51b81526020600482015260146024820152734e6f7420656e6f75676820505420746f6b656e7360601b604482015260640161031f565b600254604051632770a7eb60e21b8152336004820152602481018490526001600160a01b0390911690639dc29fac906044015f604051808303815f87803b158015610670575f5ffd5b505af1158015610682573d5f5f3e3d5ffd5b50506040515f925033915084908381818185875af1925050503d805f81146106c5576040519150601f19603f3d011682016040523d82523d5f602084013e6106ca565b606091505b50509050806106eb5760405162461bcd60e51b815260040161031f90610cbf565b505050565b805f81116107105760405162461bcd60e51b815260040161031f90610c8a565b6002546040516370a0823160e01b815233600482015283916001600160a01b0316906370a0823190602401602060405180830381865afa158015610756573d5f5f3e3d5ffd5b505050506040513d601f19601f8201168201806040525081019061077a9190610d4f565b10156107bf5760405162461bcd60e51b81526020600482015260146024820152734e6f7420656e6f75676820505420746f6b656e7360601b604482015260640161031f565b6003546040516370a0823160e01b815233600482015283916001600160a01b0316906370a0823190602401602060405180830381865afa158015610805573d5f5f3e3d5ffd5b505050506040513d601f19601f820116820180604052508101906108299190610d4f565b101561086e5760405162461bcd60e51b81526020600482015260146024820152734e6f7420656e6f75676820595420746f6b656e7360601b604482015260640161031f565b600254604051632770a7eb60e21b8152336004820152602481018490526001600160a01b0390911690639dc29fac906044015f604051808303815f87803b1580156108b7575f5ffd5b505af11580156108c9573d5f5f3e3d5ffd5b5050600354604051632770a7eb60e21b8152336004820152602481018690526001600160a01b039091169250639dc29fac91506044015f604051808303815f87803b158015610916575f5ffd5b505af1158015610928573d5f5f3e3d5ffd5b505060015460405163a9059cbb60e01b8152336004820152602481018690526001600160a01b03909116925063a9059cbb91506044016020604051808303815f875af115801561097a573d5f5f3e3d5ffd5b505050506040513d601f19601f820116820180604052508101906106eb9190610d66565b805f81116109be5760405162461bcd60e51b815260040161031f90610c8a565b6001546040516323b872dd60e01b8152336004820152306024820152604481018490526001600160a01b03909116906323b872dd906064016020604051808303815f875af1158015610a12573d5f5f3e3d5ffd5b505050506040513d601f19601f82011682018060405250810190610a369190610d66565b610a525760405162461bcd60e51b815260040161031f90610cbf565b6002546040516340c10f1960e01b8152336004820152602481018490526001600160a01b03909116906340c10f19906044015f604051808303815f87803b158015610a9b575f5ffd5b505af1158015610aad573d5f5f3e3d5ffd5b50506003546040516340c10f1960e01b8152336004820152602481018690526001600160a01b0390911692506340c10f1991506044015f604051808303815f87803b158015610afa575f5ffd5b505af1158015610b0c573d5f5f3e3d5ffd5b505050505050565b5f60045f9054906101000a90046001600160a01b03166001600160a01b0316633ba0b9a96040518163ffffffff1660e01b8152600401602060405180830381865afa158015610b65573d5f5f3e3d5ffd5b505050506040513d601f19601f82011682018060405250810190610b899190610d4f565b905090565b610b96610bcb565b6001600160a01b038116610bbf57604051631e4fbdf760e01b81525f600482015260240161031f565b610bc881610bf7565b50565b5f546001600160a01b031633146105125760405163118cdaa760e01b815233600482015260240161031f565b5f80546001600160a01b038381166001600160a01b0319831681178455604051919092169283917f8be0079c531659141344cd1fd0a4f28419497f9722a3daafe3b4186f6b6457e09190a35050565b5f60208284031215610c56575f5ffd5b5035919050565b5f60208284031215610c6d575f5ffd5b81356001600160a01b0381168114610c83575f5ffd5b9392505050565b6020808252818101527f416d6f756e74206e6565647320746f206265206c6172676572207468616e2030604082015260600190565b60208082526013908201527214d515081d1c985b9cd9995c8819985a5b1959606a1b604082015260600190565b634e487b7160e01b5f52601160045260245ffd5b81810381811115610d1357610d13610cec565b92915050565b8082028115828204841417610d1357610d13610cec565b5f82610d4a57634e487b7160e01b5f52601260045260245ffd5b500490565b5f60208284031215610d5f575f5ffd5b5051919050565b5f60208284031215610d76575f5ffd5b81518015158114610c83575f5ffdfea26469706673582212207789d3f5e38ae7158e26c0eab90a853bb85cbc8d0359d69f97e501b132057a4964736f6c634300081c0033608060405234801561000f575f5ffd5b50604051610e18380380610e1883398101604081905261002e91610179565b338282600361003d8382610262565b50600461004a8282610262565b5050506001600160a01b03811661007a57604051631e4fbdf760e01b81525f600482015260240160405180910390fd5b6100838161008b565b50505061031c565b600580546001600160a01b038381166001600160a01b0319831681179093556040519116919082907f8be0079c531659141344cd1fd0a4f28419497f9722a3daafe3b4186f6b6457e0905f90a35050565b634e487b7160e01b5f52604160045260245ffd5b5f82601f8301126100ff575f5ffd5b81516001600160401b03811115610118576101186100dc565b604051601f8201601f19908116603f011681016001600160401b0381118282101715610146576101466100dc565b60405281815283820160200185101561015d575f5ffd5b8160208501602083015e5f918101602001919091529392505050565b5f5f6040838503121561018a575f5ffd5b82516001600160401b0381111561019f575f5ffd5b6101ab858286016100f0565b602085015190935090506001600160401b038111156101c8575f5ffd5b6101d4858286016100f0565b9150509250929050565b600181811c908216806101f257607f821691505b60208210810361021057634e487b7160e01b5f52602260045260245ffd5b50919050565b601f82111561025d57805f5260205f20601f840160051c8101602085101561023b5750805b601f840160051c820191505b8181101561025a575f8155600101610247565b50505b505050565b81516001600160401b0381111561027b5761027b6100dc565b61028f8161028984546101de565b84610216565b6020601f8211600181146102c1575f83156102aa5750848201515b5f19600385901b1c1916600184901b17845561025a565b5f84815260208120601f198516915b828110156102f057878501518255602094850194600190920191016102d0565b508482101561030d57868401515f19600387901b60f8161c191681555b50505050600190811b01905550565b610aef806103295f395ff3fe608060405234801561000f575f5ffd5b50600436106100fb575f3560e01c8063715018a611610093578063a9059cbb11610063578063a9059cbb14610210578063c93fc83d14610223578063dd62ed3e14610236578063f2fde38b1461026e575f5ffd5b8063715018a6146101dc5780638da5cb5b146101e457806395d89b41146101f55780639dc29fac146101fd575f5ffd5b8063313ce567116100ce578063313ce567146101655780633cd8045e1461017457806340c10f191461019f57806370a08231146101b4575f5ffd5b806306fdde03146100ff578063095ea7b31461011d57806318160ddd1461014057806323b872dd14610152575b5f5ffd5b610107610281565b604051610114919061095f565b60405180910390f35b61013061012b3660046109af565b610311565b6040519015158152602001610114565b6002545b604051908152602001610114565b6101306101603660046109d7565b61032a565b60405160128152602001610114565b600654610187906001600160a01b031681565b6040516001600160a01b039091168152602001610114565b6101b26101ad3660046109af565b61034d565b005b6101446101c2366004610a11565b6001600160a01b03165f9081526020819052604090205490565b6101b26103ec565b6005546001600160a01b0316610187565b6101076103ff565b6101b261020b3660046109af565b61040e565b61013061021e3660046109af565b61049c565b6101b2610231366004610a11565b6104a9565b610144610244366004610a31565b6001600160a01b039182165f90815260016020908152604080832093909416825291909152205490565b6101b261027c366004610a11565b610555565b60606003805461029090610a62565b80601f01602080910402602001604051908101604052809291908181526020018280546102bc90610a62565b80156103075780601f106102de57610100808354040283529160200191610307565b820191905f5260205f20905b8154815290600101906020018083116102ea57829003601f168201915b5050505050905090565b5f3361031e818585610592565b60019150505b92915050565b5f336103378582856105a4565b610342858585610620565b506001949350505050565b6006546001600160a01b0316331461039b5760405162461bcd60e51b815260206004820152600c60248201526b2737ba1039b83634ba3a32b960a11b60448201526064015b60405180910390fd5b6103a5828261067d565b816001600160a01b03167f30385c845b448a36257a6a1716e6ad2e1bc2cbe333cde1e69fe849ad6511adfe826040516103e091815260200190565b60405180910390a25050565b6103f46106b5565b6103fd5f6106e2565b565b60606004805461029090610a62565b6006546001600160a01b031633146104575760405162461bcd60e51b815260206004820152600c60248201526b2737ba1039b83634ba3a32b960a11b6044820152606401610392565b6104618282610733565b816001600160a01b03167f696de425f79f4a40bc6d2122ca50507f0efbeabbff86a84871b7196ab8ea8df7826040516103e091815260200190565b5f3361031e818585610620565b6104b16106b5565b6001600160a01b0381166104fa5760405162461bcd60e51b815260206004820152601060248201526f24b73b30b634b21039b83634ba3a32b960811b6044820152606401610392565b6006546040516001600160a01b038084169216907f6bc9a391eaa400e49105e972b9ab3dfdef26f0966566410c0d0fc02ae32e8eb3905f90a3600680546001600160a01b0319166001600160a01b0392909216919091179055565b61055d6106b5565b6001600160a01b03811661058657604051631e4fbdf760e01b81525f6004820152602401610392565b61058f816106e2565b50565b61059f8383836001610767565b505050565b6001600160a01b038381165f908152600160209081526040808320938616835292905220545f1981101561061a578181101561060c57604051637dc7a0d960e11b81526001600160a01b03841660048201526024810182905260448101839052606401610392565b61061a84848484035f610767565b50505050565b6001600160a01b03831661064957604051634b637e8f60e11b81525f6004820152602401610392565b6001600160a01b0382166106725760405163ec442f0560e01b81525f6004820152602401610392565b61059f838383610839565b6001600160a01b0382166106a65760405163ec442f0560e01b81525f6004820152602401610392565b6106b15f8383610839565b5050565b6005546001600160a01b031633146103fd5760405163118cdaa760e01b8152336004820152602401610392565b600580546001600160a01b038381166001600160a01b0319831681179093556040519116919082907f8be0079c531659141344cd1fd0a4f28419497f9722a3daafe3b4186f6b6457e0905f90a35050565b6001600160a01b03821661075c57604051634b637e8f60e11b81525f6004820152602401610392565b6106b1825f83610839565b6001600160a01b0384166107905760405163e602df0560e01b81525f6004820152602401610392565b6001600160a01b0383166107b957604051634a1406b160e11b81525f6004820152602401610392565b6001600160a01b038085165f908152600160209081526040808320938716835292905220829055801561061a57826001600160a01b0316846001600160a01b03167f8c5be1e5ebec7d5bd14f71427d1e84f3dd0314c0f7b2291e5b200ac8c7c3b9258460405161082b91815260200190565b60405180910390a350505050565b6001600160a01b038316610863578060025f8282546108589190610a9a565b909155506108d39050565b6001600160a01b0383165f90815260208190526040902054818110156108b55760405163391434e360e21b81526001600160a01b03851660048201526024810182905260448101839052606401610392565b6001600160a01b0384165f9081526020819052604090209082900390555b6001600160a01b0382166108ef5760028054829003905561090d565b6001600160a01b0382165f9081526020819052604090208054820190555b816001600160a01b0316836001600160a01b03167fddf252ad1be2c89b69c2b068fc378daa952ba7f163c4a11628f55a4df523b3ef8360405161095291815260200190565b60405180910390a3505050565b602081525f82518060208401528060208501604085015e5f604082850101526040601f19601f83011684010191505092915050565b80356001600160a01b03811681146109aa575f5ffd5b919050565b5f5f604083850312156109c0575f5ffd5b6109c983610994565b946020939093013593505050565b5f5f5f606084860312156109e9575f5ffd5b6109f284610994565b9250610a0060208501610994565b929592945050506040919091013590565b5f60208284031215610a21575f5ffd5b610a2a82610994565b9392505050565b5f5f60408385031215610a42575f5ffd5b610a4b83610994565b9150610a5960208401610994565b90509250929050565b600181811c90821680610a7657607f821691505b602082108103610a9457634e487b7160e01b5f52602260045260245ffd5b50919050565b8082018082111561032457634e487b7160e01b5f52601160045260245ffdfea26469706673582212203d62af712b317436898ef6ac09b5a64972c286d74621ae19ffa063d8f8d0af9264736f6c634300081c0033608060405234801561000f575f5ffd5b50604051610e18380380610e1883398101604081905261002e91610179565b338282600361003d8382610262565b50600461004a8282610262565b5050506001600160a01b03811661007a57604051631e4fbdf760e01b81525f600482015260240160405180910390fd5b6100838161008b565b50505061031c565b600580546001600160a01b038381166001600160a01b0319831681179093556040519116919082907f8be0079c531659141344cd1fd0a4f28419497f9722a3daafe3b4186f6b6457e0905f90a35050565b634e487b7160e01b5f52604160045260245ffd5b5f82601f8301126100ff575f5ffd5b81516001600160401b03811115610118576101186100dc565b604051601f8201601f19908116603f011681016001600160401b0381118282101715610146576101466100dc565b60405281815283820160200185101561015d575f5ffd5b8160208501602083015e5f918101602001919091529392505050565b5f5f6040838503121561018a575f5ffd5b82516001600160401b0381111561019f575f5ffd5b6101ab858286016100f0565b602085015190935090506001600160401b038111156101c8575f5ffd5b6101d4858286016100f0565b9150509250929050565b600181811c908216806101f257607f821691505b60208210810361021057634e487b7160e01b5f52602260045260245ffd5b50919050565b601f82111561025d57805f5260205f20601f840160051c8101602085101561023b5750805b601f840160051c820191505b8181101561025a575f8155600101610247565b50505b505050565b81516001600160401b0381111561027b5761027b6100dc565b61028f8161028984546101de565b84610216565b6020601f8211600181146102c1575f83156102aa5750848201515b5f19600385901b1c1916600184901b17845561025a565b5f84815260208120601f198516915b828110156102f057878501518255602094850194600190920191016102d0565b508482101561030d57868401515f19600387901b60f8161c191681555b50505050600190811b01905550565b610aef806103295f395ff3fe608060405234801561000f575f5ffd5b50600436106100fb575f3560e01c8063715018a611610093578063a9059cbb11610063578063a9059cbb14610210578063c93fc83d14610223578063dd62ed3e14610236578063f2fde38b1461026e575f5ffd5b8063715018a6146101dc5780638da5cb5b146101e457806395d89b41146101f55780639dc29fac146101fd575f5ffd5b8063313ce567116100ce578063313ce567146101655780633cd8045e1461017457806340c10f191461019f57806370a08231146101b4575f5ffd5b806306fdde03146100ff578063095ea7b31461011d57806318160ddd1461014057806323b872dd14610152575b5f5ffd5b610107610281565b604051610114919061095f565b60405180910390f35b61013061012b3660046109af565b610311565b6040519015158152602001610114565b6002545b604051908152602001610114565b6101306101603660046109d7565b61032a565b60405160128152602001610114565b600654610187906001600160a01b031681565b6040516001600160a01b039091168152602001610114565b6101b26101ad3660046109af565b61034d565b005b6101446101c2366004610a11565b6001600160a01b03165f9081526020819052604090205490565b6101b26103ec565b6005546001600160a01b0316610187565b6101076103ff565b6101b261020b3660046109af565b61040e565b61013061021e3660046109af565b61049c565b6101b2610231366004610a11565b6104a9565b610144610244366004610a31565b6001600160a01b039182165f90815260016020908152604080832093909416825291909152205490565b6101b261027c366004610a11565b610555565b60606003805461029090610a62565b80601f01602080910402602001604051908101604052809291908181526020018280546102bc90610a62565b80156103075780601f106102de57610100808354040283529160200191610307565b820191905f5260205f20905b8154815290600101906020018083116102ea57829003601f168201915b5050505050905090565b5f3361031e818585610592565b60019150505b92915050565b5f336103378582856105a4565b610342858585610620565b506001949350505050565b6006546001600160a01b0316331461039b5760405162461bcd60e51b815260206004820152600c60248201526b2737ba1039b83634ba3a32b960a11b60448201526064015b60405180910390fd5b6103a5828261067d565b816001600160a01b03167f30385c845b448a36257a6a1716e6ad2e1bc2cbe333cde1e69fe849ad6511adfe826040516103e091815260200190565b60405180910390a25050565b6103f46106b5565b6103fd5f6106e2565b565b60606004805461029090610a62565b6006546001600160a01b031633146104575760405162461bcd60e51b815260206004820152600c60248201526b2737ba1039b83634ba3a32b960a11b6044820152606401610392565b6104618282610733565b816001600160a01b03167f696de425f79f4a40bc6d2122ca50507f0efbeabbff86a84871b7196ab8ea8df7826040516103e091815260200190565b5f3361031e818585610620565b6104b16106b5565b6001600160a01b0381166104fa5760405162461bcd60e51b815260206004820152601060248201526f24b73b30b634b21039b83634ba3a32b960811b6044820152606401610392565b6006546040516001600160a01b038084169216907f6bc9a391eaa400e49105e972b9ab3dfdef26f0966566410c0d0fc02ae32e8eb3905f90a3600680546001600160a01b0319166001600160a01b0392909216919091179055565b61055d6106b5565b6001600160a01b03811661058657604051631e4fbdf760e01b81525f6004820152602401610392565b61058f816106e2565b50565b61059f8383836001610767565b505050565b6001600160a01b038381165f908152600160209081526040808320938616835292905220545f1981101561061a578181101561060c57604051637dc7a0d960e11b81526001600160a01b03841660048201526024810182905260448101839052606401610392565b61061a84848484035f610767565b50505050565b6001600160a01b03831661064957604051634b637e8f60e11b81525f6004820152602401610392565b6001600160a01b0382166106725760405163ec442f0560e01b81525f6004820152602401610392565b61059f838383610839565b6001600160a01b0382166106a65760405163ec442f0560e01b81525f6004820152602401610392565b6106b15f8383610839565b5050565b6005546001600160a01b031633146103fd5760405163118cdaa760e01b8152336004820152602401610392565b600580546001600160a01b038381166001600160a01b0319831681179093556040519116919082907f8be0079c531659141344cd1fd0a4f28419497f9722a3daafe3b4186f6b6457e0905f90a35050565b6001600160a01b03821661075c57604051634b637e8f60e11b81525f6004820152602401610392565b6106b1825f83610839565b6001600160a01b0384166107905760405163e602df0560e01b81525f6004820152602401610392565b6001600160a01b0383166107b957604051634a1406b160e11b81525f6004820152602401610392565b6001600160a01b038085165f908152600160209081526040808320938716835292905220829055801561061a57826001600160a01b0316846001600160a01b03167f8c5be1e5ebec7d5bd14f71427d1e84f3dd0314c0f7b2291e5b200ac8c7c3b9258460405161082b91815260200190565b60405180910390a350505050565b6001600160a01b038316610863578060025f8282546108589190610a9a565b909155506108d39050565b6001600160a01b0383165f90815260208190526040902054818110156108b55760405163391434e360e21b81526001600160a01b03851660048201526024810182905260448101839052606401610392565b6001600160a01b0384165f9081526020819052604090209082900390555b6001600160a01b0382166108ef5760028054829003905561090d565b6001600160a01b0382165f9081526020819052604090208054820190555b816001600160a01b0316836001600160a01b03167fddf252ad1be2c89b69c2b068fc378daa952ba7f163c4a11628f55a4df523b3ef8360405161095291815260200190565b60405180910390a3505050565b602081525f82518060208401528060208501604085015e5f604082850101526040601f19601f83011684010191505092915050565b80356001600160a01b03811681146109aa575f5ffd5b919050565b5f5f604083850312156109c0575f5ffd5b6109c983610994565b946020939093013593505050565b5f5f5f606084860312156109e9575f5ffd5b6109f284610994565b9250610a0060208501610994565b929592945050506040919091013590565b5f60208284031215610a21575f5ffd5b610a2a82610994565b9392505050565b5f5f60408385031215610a42575f5ffd5b610a4b83610994565b9150610a5960208401610994565b90509250929050565b600181811c90821680610a7657607f821691505b602082108103610a9457634e487b7160e01b5f52602260045260245ffd5b50919050565b8082018082111561032457634e487b7160e01b5f52601160045260245ffdfea26469706673582212202316a7c829751d30651393131f25200405dfb135569caea5e6d3c2a32c5ccb0d64736f6c634300081c0033",
  "linkReferences": {},
  "deployedLinkReferences": {},
  "immutableReferences": {},
  "inputSourceName": "project/contracts/Splitter/Splitter.sol",
  "buildInfoId": "solc-0_8_28-e1c4cb70b02c58a874c7a3d79ac5af43f6bd9934"
}