{
  "_format": "hh3-artifact-1",
  "contractName": "Vault",
  "sourceName": "contracts/Vault/Vault.sol",
  "abi": [
    {
      "inputs": [
        {
          "internalType": "address",
          "name": "_stSTT",
          "type": "address"
        },
        {
          "internalType": "address",
          "name": "_oracle",
          "type": "address"
        }
      ],
      "stateMutability": "nonpayable",
      "type": "constructor"
    },
    {
      "inputs": [
        {
          "internalType": "address",
          "name": "owner",
          "type": "address"
        }
      ],
      "name": "OwnableInvalidOwner",
      "type": "error"
    },
    {
      "inputs": [
        {
          "internalType": "address",
          "name": "account",
          "type": "address"
        }
      ],
      "name": "OwnableUnauthorizedAccount",
      "type": "error"
    },
    {
      "anonymous": false,
      "inputs": [
        {
          "indexed": false,
          "internalType": "uint256",
          "name": "oldRate",
          "type": "uint256"
        },
        {
          "indexed": false,
          "internalType": "uint256",
          "name": "newRate",
          "type": "uint256"
        }
      ],
      "name": "ExchangeRateUpdated",
      "type": "event"
    },
    {
      "anonymous": false,
      "inputs": [
        {
          "indexed": true,
          "internalType": "address",
          "name": "oldOracle",
          "type": "address"
        },
        {
          "indexed": true,
          "internalType": "address",
          "name": "newOracle",
          "type": "address"
        }
      ],
      "name": "OracleUpdated",
      "type": "event"
    },
    {
      "anonymous": false,
      "inputs": [
        {
          "indexed": true,
          "internalType": "address",
          "name": "previousOwner",
          "type": "address"
        },
        {
          "indexed": true,
          "internalType": "address",
          "name": "newOwner",
          "type": "address"
        }
      ],
      "name": "OwnershipTransferred",
      "type": "event"
    },
    {
      "inputs": [],
      "name": "RATE_PRECISION",
      "outputs": [
        {
          "internalType": "uint256",
          "name": "",
          "type": "uint256"
        }
      ],
      "stateMutability": "view",
      "type": "function"
    },
    {
      "inputs": [],
      "name": "deposit",
      "outputs": [],
      "stateMutability": "payable",
      "type": "function"
    },
    {
      "inputs": [],
      "name": "exchangeRate",
      "outputs": [
        {
          "internalType": "uint256",
          "name": "",
          "type": "uint256"
        }
      ],
      "stateMutability": "view",
      "type": "function"
    },
    {
      "inputs": [],
      "name": "oracle",
      "outputs": [
        {
          "internalType": "address",
          "name": "",
          "type": "address"
        }
      ],
      "stateMutability": "view",
      "type": "function"
    },
    {
      "inputs": [],
      "name": "owner",
      "outputs": [
        {
          "internalType": "address",
          "name": "",
          "type": "address"
        }
      ],
      "stateMutability": "view",
      "type": "function"
    },
    {
      "inputs": [],
      "name": "renounceOwnership",
      "outputs": [],
      "stateMutability": "nonpayable",
      "type": "function"
    },
    {
      "inputs": [
        {
          "internalType": "uint256",
          "name": "_rate",
          "type": "uint256"
        }
      ],
      "name": "setExchangeRate",
      "outputs": [],
      "stateMutability": "nonpayable",
      "type": "function"
    },
    {
      "inputs": [
        {
          "internalType": "address",
          "name": "_newOracle",
          "type": "address"
        }
      ],
      "name": "setOracle",
      "outputs": [],
      "stateMutability": "nonpayable",
      "type": "function"
    },
    {
      "inputs": [],
      "name": "stToken",
      "outputs": [
        {
          "internalType": "contract stSTT",
          "name": "",
          "type": "address"
        }
      ],
      "stateMutability": "view",
      "type": "function"
    },
    {
      "inputs": [
        {
          "internalType": "address",
          "name": "newOwner",
          "type": "address"
        }
      ],
      "name": "transferOwnership",
      "outputs": [],
      "stateMutability": "nonpayable",
      "type": "function"
    },
    {
      "inputs": [
        {
          "internalType": "uint256",
          "name": "_amount",
          "type": "uint256"
        }
      ],
      "name": "withdraw",
      "outputs": [],
      "stateMutability": "payable",
      "type": "function"
    }
  ],
  "bytecode": "0x608060405234801561000f575f5ffd5b5060405161083138038061083183398101604081905261002e91610104565b338061005357604051631e4fbdf760e01b81525f600482015260240160405180910390fd5b61005c8161009a565b50600180546001600160a01b039384166001600160a01b031991821617909155670de0b6b3a764000060025560038054929093169116179055610135565b5f80546001600160a01b038381166001600160a01b0319831681178455604051919092169283917f8be0079c531659141344cd1fd0a4f28419497f9722a3daafe3b4186f6b6457e09190a35050565b80516001600160a01b03811681146100ff575f5ffd5b919050565b5f5f60408385031215610115575f5ffd5b61011e836100e9565b915061012c602084016100e9565b90509250929050565b6106ef806101425f395ff3fe60806040526004361061009a575f3560e01c80637adbf973116100625780637adbf973146101415780637dc0d1d0146101605780638da5cb5b1461017f578063d0e30db01461019b578063db068e0e146101a3578063f2fde38b146101c2575f5ffd5b806323b6443e1461009e5780632b3ba681146100da5780632e1a7d4d146101035780633ba0b9a914610118578063715018a61461012d575b5f5ffd5b3480156100a9575f5ffd5b506001546100bd906001600160a01b031681565b6040516001600160a01b0390911681526020015b60405180910390f35b3480156100e5575f5ffd5b506100f5670de0b6b3a764000081565b6040519081526020016100d1565b61011661011136600461062d565b6101e1565b005b348015610123575f5ffd5b506100f560025481565b348015610138575f5ffd5b50610116610398565b34801561014c575f5ffd5b5061011661015b366004610644565b6103ab565b34801561016b575f5ffd5b506003546100bd906001600160a01b031681565b34801561018a575f5ffd5b505f546001600160a01b03166100bd565b61011661040e565b3480156101ae575f5ffd5b506101166101bd36600461062d565b6104cf565b3480156101cd575f5ffd5b506101166101dc366004610644565b610575565b5f81116102355760405162461bcd60e51b815260206004820152601a60248201527f737453545420616d6f756e742068617320746f206265203e203000000000000060448201526064015b60405180910390fd5b600154604051632770a7eb60e21b8152336004820152602481018390526001600160a01b0390911690639dc29fac906044015f604051808303815f87803b15801561027e575f5ffd5b505af1158015610290573d5f5f3e3d5ffd5b505050505f670de0b6b3a7640000600254836102ac9190610671565b6102b6919061069a565b9050804710156103085760405162461bcd60e51b815260206004820152601760248201527f4e6f7420656e6f7567682053545420696e207661756c74000000000000000000604482015260640161022c565b6040515f90339083908381818185875af1925050503d805f8114610347576040519150601f19603f3d011682016040523d82523d5f602084013e61034c565b606091505b50509050806103935760405162461bcd60e51b815260206004820152601360248201527214d515081d1c985b9cd9995c8819985a5b1959606a1b604482015260640161022c565b505050565b6103a06105b2565b6103a95f6105de565b565b6103b36105b2565b6003546040516001600160a01b038084169216907f078c3b417dadf69374a59793b829c52001247130433427049317bde56607b1b7905f90a3600380546001600160a01b0319166001600160a01b0392909216919091179055565b5f341161044b5760405162461bcd60e51b815260206004820152600b60248201526a139bc814d515081cd95b9d60aa1b604482015260640161022c565b6002545f90610462670de0b6b3a764000034610671565b61046c919061069a565b6001546040516340c10f1960e01b8152336004820152602481018390529192506001600160a01b0316906340c10f19906044015f604051808303815f87803b1580156104b6575f5ffd5b505af11580156104c8573d5f5f3e3d5ffd5b5050505050565b6003546001600160a01b031633146105345760405162461bcd60e51b815260206004820152602260248201527f4f6e6c79204f7261636c652063616e2063616c6c20746869732066756e63746960448201526137b760f11b606482015260840161022c565b60025460408051918252602082018390527fc8d1043f24843c0a1c9251fdc30017d84e87498fbcf232af9f86816b5e182bde910160405180910390a1600255565b61057d6105b2565b6001600160a01b0381166105a657604051631e4fbdf760e01b81525f600482015260240161022c565b6105af816105de565b50565b5f546001600160a01b031633146103a95760405163118cdaa760e01b815233600482015260240161022c565b5f80546001600160a01b038381166001600160a01b0319831681178455604051919092169283917f8be0079c531659141344cd1fd0a4f28419497f9722a3daafe3b4186f6b6457e09190a35050565b5f6020828403121561063d575f5ffd5b5035919050565b5f60208284031215610654575f5ffd5b81356001600160a01b038116811461066a575f5ffd5b9392505050565b808202811582820484141761069457634e487b7160e01b5f52601160045260245ffd5b92915050565b5f826106b457634e487b7160e01b5f52601260045260245ffd5b50049056fea264697066735822122042f7de1beb4b6ad1b41407196769ffae894f3b3b8e45db6c268d485189173e4964736f6c634300081c0033",
  "linkReferences": {},
  "deployedLinkReferences": {},
  "immutableReferences": {},
  "inputSourceName": "project/contracts/Vault/Vault.sol",
  "buildInfoId": "solc-0_8_28-37b4fb43927a67ddff3925a747dba620e5174073"
}