{
  "_format": "hh3-artifact-1",
  "contractName": "Vault",
  "sourceName": "contracts/Vault/Vault.sol",
  "abi": [
    {
      "inputs": [
        {
          "internalType": "address",
          "name": "_stSTT",
          "type": "address"
        },
        {
          "internalType": "address",
          "name": "_oracle",
          "type": "address"
        }
      ],
      "stateMutability": "nonpayable",
      "type": "constructor"
    },
    {
      "inputs": [],
      "name": "RATE_PRECISION",
      "outputs": [
        {
          "internalType": "uint256",
          "name": "",
          "type": "uint256"
        }
      ],
      "stateMutability": "view",
      "type": "function"
    },
    {
      "inputs": [],
      "name": "deposit",
      "outputs": [],
      "stateMutability": "payable",
      "type": "function"
    },
    {
      "inputs": [],
      "name": "exchangeRate",
      "outputs": [
        {
          "internalType": "uint256",
          "name": "",
          "type": "uint256"
        }
      ],
      "stateMutability": "view",
      "type": "function"
    },
    {
      "inputs": [],
      "name": "oracle",
      "outputs": [
        {
          "internalType": "address",
          "name": "",
          "type": "address"
        }
      ],
      "stateMutability": "view",
      "type": "function"
    },
    {
      "inputs": [
        {
          "internalType": "uint256",
          "name": "_rate",
          "type": "uint256"
        }
      ],
      "name": "setExchangeRate",
      "outputs": [],
      "stateMutability": "nonpayable",
      "type": "function"
    },
    {
      "inputs": [],
      "name": "stToken",
      "outputs": [
        {
          "internalType": "contract stSTT",
          "name": "",
          "type": "address"
        }
      ],
      "stateMutability": "view",
      "type": "function"
    },
    {
      "inputs": [
        {
          "internalType": "uint256",
          "name": "_amount",
          "type": "uint256"
        }
      ],
      "name": "withdraw",
      "outputs": [],
      "stateMutability": "payable",
      "type": "function"
    }
  ],
  "bytecode": "0x6080604052348015600e575f5ffd5b50604051610574380380610574833981016040819052602b916080565b5f80546001600160a01b039384166001600160a01b031991821617909155670de0b6b3a76400006001556002805492909316911617905560ac565b80516001600160a01b0381168114607b575f5ffd5b919050565b5f5f604083850312156090575f5ffd5b6097836066565b915060a3602084016066565b90509250929050565b6104bb806100b95f395ff3fe60806040526004361061006e575f3560e01c80633ba0b9a91161004c5780633ba0b9a9146100eb5780637dc0d1d014610100578063d0e30db01461011f578063db068e0e14610127575f5ffd5b806323b6443e146100725780632b3ba681146100ad5780632e1a7d4d146100d6575b5f5ffd5b34801561007d575f5ffd5b505f54610090906001600160a01b031681565b6040516001600160a01b0390911681526020015b60405180910390f35b3480156100b8575f5ffd5b506100c8670de0b6b3a764000081565b6040519081526020016100a4565b6100e96100e4366004610426565b610146565b005b3480156100f6575f5ffd5b506100c860015481565b34801561010b575f5ffd5b50600254610090906001600160a01b031681565b6100e96102fc565b348015610132575f5ffd5b506100e9610141366004610426565b6103bc565b5f811161019a5760405162461bcd60e51b815260206004820152601a60248201527f737453545420616d6f756e742068617320746f206265203e203000000000000060448201526064015b60405180910390fd5b5f54604051632770a7eb60e21b8152336004820152602481018390526001600160a01b0390911690639dc29fac906044015f604051808303815f87803b1580156101e2575f5ffd5b505af11580156101f4573d5f5f3e3d5ffd5b505050505f670de0b6b3a764000060015483610210919061043d565b61021a9190610466565b90508047101561026c5760405162461bcd60e51b815260206004820152601760248201527f4e6f7420656e6f7567682053545420696e207661756c740000000000000000006044820152606401610191565b6040515f90339083908381818185875af1925050503d805f81146102ab576040519150601f19603f3d011682016040523d82523d5f602084013e6102b0565b606091505b50509050806102f75760405162461bcd60e51b815260206004820152601360248201527214d515081d1c985b9cd9995c8819985a5b1959606a1b6044820152606401610191565b505050565b5f34116103395760405162461bcd60e51b815260206004820152600b60248201526a139bc814d515081cd95b9d60aa1b6044820152606401610191565b6001545f9061035034670de0b6b3a764000061043d565b61035a9190610466565b5f546040516340c10f1960e01b8152336004820152602481018390529192506001600160a01b0316906340c10f19906044015f604051808303815f87803b1580156103a3575f5ffd5b505af11580156103b5573d5f5f3e3d5ffd5b5050505050565b6002546001600160a01b031633146104215760405162461bcd60e51b815260206004820152602260248201527f4f6e6c79204f7261636c652063616e2063616c6c20746869732066756e63746960448201526137b760f11b6064820152608401610191565b600155565b5f60208284031215610436575f5ffd5b5035919050565b808202811582820484141761046057634e487b7160e01b5f52601160045260245ffd5b92915050565b5f8261048057634e487b7160e01b5f52601260045260245ffd5b50049056fea264697066735822122028a98c4210b703e1d5814bcff7279010d2c4e38df25aa02d5ce5bb4061c08c5064736f6c634300081c0033",
  "linkReferences": {},
  "deployedLinkReferences": {},
  "immutableReferences": {},
  "inputSourceName": "project/contracts/Vault/Vault.sol",
  "buildInfoId": "solc-0_8_28-50ea83f93287cbe2a3e7dbdf6be30248a578faa4"
}